{
  "_format": "hh-sol-artifact-1",
  "contractName": "Counter",
  "sourceName": "contracts/Counter.sol",
  "abi": [
    {
      "inputs": [
        {
          "internalType": "uint256",
          "name": "num",
          "type": "uint256"
        }
      ],
      "stateMutability": "nonpayable",
      "type": "constructor"
    },
    {
      "anonymous": false,
      "inputs": [
        {
          "indexed": false,
          "internalType": "uint256",
          "name": "amount",
          "type": "uint256"
        }
      ],
      "name": "CounterDecreased",
      "type": "event"
    },
    {
      "anonymous": false,
      "inputs": [
        {
          "indexed": false,
          "internalType": "uint256",
          "name": "amount",
          "type": "uint256"
        }
      ],
      "name": "CounterIncreased",
      "type": "event"
    },
    {
      "inputs": [
        {
          "internalType": "uint256",
          "name": "amount",
          "type": "uint256"
        }
      ],
      "name": "decreaseCounter",
      "outputs": [],
      "stateMutability": "nonpayable",
      "type": "function"
    },
    {
      "inputs": [],
      "name": "getCounter",
      "outputs": [
        {
          "internalType": "uint256",
          "name": "",
          "type": "uint256"
        }
      ],
      "stateMutability": "view",
      "type": "function"
    },
    {
      "inputs": [
        {
          "internalType": "uint256",
          "name": "amount",
          "type": "uint256"
        }
      ],
      "name": "increaseCounter",
      "outputs": [],
      "stateMutability": "nonpayable",
      "type": "function"
    },
    {
      "inputs": [],
      "name": "owner",
      "outputs": [
        {
          "internalType": "address",
          "name": "",
          "type": "address"
        }
      ],
      "stateMutability": "view",
      "type": "function"
    }
  ],
  "bytecode": "0x608060405234801561001057600080fd5b506040516102e93803806102e983398101604081905261002f91610049565b600180546001600160a01b03191633179055600055610062565b60006020828403121561005b57600080fd5b5051919050565b610278806100716000396000f3fe608060405234801561001057600080fd5b506004361061004c5760003560e01c80638ada066e146100515780638da5cb5b146100675780639e80c07414610082578063b24f03af14610097575b600080fd5b6000546040519081526020015b60405180910390f35b6001546040516001600160a01b03909116815260200161005e565b6100956100903660046101e4565b6100aa565b005b6100956100a53660046101e4565b610150565b6001546001600160a01b031633146101005760405162461bcd60e51b81526020600482015260146024820152732cb7ba9030b932b713ba103a34329037bbb732b960611b60448201526064015b60405180910390fd5b806000808282546101119190610213565b90915550506000546040519081527f9389e4e5d18f626febd3fd1c8a0fc1a63c8ff20d46c4cca7221a57aa790edaaa906020015b60405180910390a150565b80600054101561019b5760405162461bcd60e51b8152602060048201526016602482015275043616e6e6f74206265206c6f776572207468616e20360541b60448201526064016100f7565b806000808282546101ac919061022b565b90915550506000546040519081527f8e2dc3acdc9ccc998b84155103ad06fdc57733681108c79c1a98d628e5b27e4890602001610145565b6000602082840312156101f657600080fd5b5035919050565b634e487b7160e01b600052601160045260246000fd5b60008219821115610226576102266101fd565b500190565b60008282101561023d5761023d6101fd565b50039056fea2646970667358221220aa4a6bda7f416fae7db3fe3565a4a212301d8df70d646a2ddcf2728bc3bb6a9e64736f6c63430008090033",
  "linkReferences": {},
  "deployedLinkReferences": {}
}